:03004300021300A5
:0300530002130095
:101300000216F70002173D000217270002170F0010
:101310000211C900021432000217C8000217C900E6
:101320000217CA000217CB000217CC00020080008F
:101330000217CD000217CE000217CF000217D0000F
:101340000217D1000217C9000217D2000217D300FA
:101350000217D4000217D5000217D6000217D700D3
:101360000217D8000217C9000217C9000217C900E6
:101370000217D9000217DA000217DB000217DC009F
:101380000217DD000217DE000217DF000217E0007F
:101390000217E1000217E2000217E3000217E4005F
:1013A0000217E5000217E6000217E7000217E8003F
:0813B0000217E9000217EA0030
:0A179400000102020303040405052E
:100CB800E4F549F548F547F546C203C200C202C249
:100CC80001120E7D7E127F008E0A8F0B751212752F
:100CD800131275081275091C7510127511587514C0
:100CE8001275159490E680E030E70E85080C8509AA
:100CF8000D85100E85110F800C85100C85110D8542
:100D0800080E85090FEE54E07003020E23754A00A1
:100D1800754B807E127F008E4C8F4DC374DA9FFF17
:100D280074129ECF2402CF3400FEE48F458E44F522
:100D380043F542F541F540F53FF53EAF45AE44ADCC
:100D480043AC42AB41AA40A93FA83EC31209E150B7
:100D580026E54B2541F582E54A3540F58374CDF00B
:100D6800E5412401F541E43540F540E4353FF53FE0
:100D7800E4353EF53E80C4E4F541F540F53FF53EE7
:100D8800AF45AE44AD43AC42AB41AA40A93FA83EF3
:100D9800C31209E15033E54D2541F582E54C354054
:100DA800F583E0FFE54B2541F582E54A3540F583BB
:100DB800EFF0E5412401F541E43540F540E4353FE5
:100DC800F53FE4353EF53E80B7854A0A854B0B74FE
:100DD800002480FF741234FFFEC3E5139FF513E56A
:100DE800129EF512C3E50D9FF50DE50C9EF50CC39B
:100DF800E50F9FF50FE50E9EF50EC3E5099FF50972
:100E0800E5089EF508C3E5119FF511E5109EF5105C
:100E1800C3E5159FF515E5149EF514D2E843D820CF
:100E280090E668E04409F090E65CE0443DF0D2AF1B
:100E380090E680E054F7F0538EF8C20330010512B3
:100E48000A94C2013003291217BA5024C203121699
:100E58001F20001690E682E030E704E020E1EF90E2
:100E6800E682E030E604E020E0E412159C1217BCAC
:050E78001204FC80C71C
:100A940090E6B9E07003020B45147003020BC22404
:100AA400FE7003020C4524FB7003020B3F14700319
:100AB400020B3914607314607624056003020CA4DD
:100AC4001217BE4003020CB090E6BBE024FE602285
:100AD40014603324FD601114602224067048E50A72
:100AE40090E6B3F0E50B8037E51290E6B3F0E5133A
:100AF400802DE50C90E6B3F0E50D8023E50E90E63D
:100B0400B3F0E50F801990E6BAE0FF1215C8AA0603
:100B1400A9077B01EA494B600DEE90E6B3F0EF9034
:100B2400E6B4F0020CB0020CA9121777020CB01252
:100B340017A6020CB012179E020CB0121765020C15
:100B4400B01217C04003020CB090E6B8E0247F60F6
:100B54001514601924027063A200E43325E0FFA297
:100B640002E4334F8041E490E740F0803F90E6BCDC
:100B7400E0547EFF7E00E0D394807C0040047D013D
:100B840080027D00EC4EFEED4F2494F58274173EF6
:100B9400F583E493FF3395E0FEEF24A1FFEE34E602
:100BA4008F82F583E0540190E740F0E4A3F090E6EF
:100BB4008AF090E68B7402F0020CB0020CA91217B2
:100BC400C24003020CB090E6B8E024FE6016240292
:100BD4006003020CB090E6BAE0B40105C200020C56
:100BE400B0020CA990E6BAE0705590E6BCE0547EE1
:100BF400FF7E00E0D394807C0040047D0180027D70
:100C040000EC4EFEED4F2494F58274173EF583E418
:100C140093FF3395E0FEEF24A1FFEE34E68F82F5D7
:100C240083E054FEF090E6BCE05480131313541F89
:100C3400FFE0540F2F90E683F0E04420F0806D80B5
:100C4400641217C4506690E6B8E024FE60192402CA
:100C5400705A90E6BAE0B40104D200804F90E6BA2C
:100C6400E064026047803E90E6BCE0547EFF7E0074
:100C7400E0D394807C0040047D0180027D00EC4E32
:100C8400FEED4F2494F58274173EF583E493FF330D
:100C940095E0FEEF24A1FFEE34E68F82F583800811
:100CA4001217C6500790E6A0E04401F090E6A0E0D9
:030CB4004480F089
:010CB700221A
:030033000217B6FB
:0417B60053D8EF32E3
:0B1789000200030080FF00FF000000D2
:1013F900012200012300012D00022E000002340009
:10140900060125014118150008360000AD0000004D
:101419000000013201013102012C030130000426D0
:0814290000000000022A00008F
:1017530090E600E0541EC313FF90E601E054704F7F
:02176300FF2263
:10166800AC07EC5470FE90E601E0548F4EF0EC2588
:0D167800E0541EFF90E600E054E14FF02228
:02149F00AC0798
:1014A100E4FEC2E990E678E04480F0EC25E090E6C5
:1014B10079F090E678E030E0F9E05402C313FE9051
:1014C100E67AE04440F090E678E020E6F9D2E9AF30
:0114D1000614
:0114D20022F7
:0614D3007B057C00AF2444
:0414D9008F168B19C6
:1014DD00E4F51CEC901813F0EDA3F07A187B137D56
:1014ED00021216DB500FAB1BAA1AAD19AF1612164E
:0914FD00BFE433F51CE51C24FFDB
:0115060022C2
:0415F4008F578B5929
:1015F800E4F55C901816EDF07A187B167D0112164A
:10160800DB500FAB5BAA5AAD59AF571216BFE43384
:06161800F55CE55C24FF17
:01161E0022A9
:10168500EF14600D14600D14600D2403700C8D8033
:0D169500228D90228DA0228DB0228DB122D9
:1012DC00EF14600E14600F14601024037010E5807E
:1012EC00800EE590800AE5A08006E5B08002E5B1AD
:0412FC001209612250
:1016A200EF14600D14600D14600D2403700C8DB2E4
:0D16B200228DB3228DB4228DB5228DB6227B
:10164400EF14600E14600F14601024037010E5B2E0
:10165400800EE5B3800AE5B48006E5B58002E5B600
:0416640012096122E4
:100E7D0078087C187D017BFF7A1779897E007F05C4
:100E8D0012090E780D7C187D017BFF7A17798E7E05
:100E9D00007F0512090E78127C187D017BFF7A17F1
:100EAD0079937E007F0112090E90E600E054E7442D
:100EBD0010F0000000E054FDF00000000000009074
:100ECD00E61074A0F000000090E611F00000009014
:100EDD00E65EE04408F000000090E65F7408F00064
:100EED000000E490E68DF000000000000090E61296
:100EFD0074A2F000000090E61374A0F000000090C2
:100F0D00E61474E2F000000090E61574E0F00000C5
:100F1D0000E490E619F000000090E61BF0000000E0
:100F2D0000000090E618F000000090E61AF00000B6
:100F3D000000000090E6917480F0000000F00000C9
:100F4D0000F0000000F000000090E695F0000000B9
:100F5D00F043AF0190E60174D8F0D20090E6F3743F
:100F6D00E0F0E490E6C3F090E6C1F075F8E21217F8
:100F7D00AE90E678E05410C4540F4450F524C2E806
:100F8D00B45112751A18751B007B01E4FDFCAF24DA
:100F9D001214D9800F755A18755B007B01E4FDAFF3
:100FAD00241215F4901800E0901815F0E524B451B2
:100FBD00047F0180027F00901815EFF06023751AF1
:100FCD0018751B087D101214D3751A18751B0D7D1D
:100FDD00151214D3751A18751B127B017D1A121474
:100FED00D5D2E890180DE0F5B2901808E0F5809094
:100FFD00180EE0F5B3901809E0F59090180FE0F594
:10100D00B490180AE0F5A0901810E0F5B590180B03
:10101D00E0F5B0901811E0F5B690180CE0F5B19030
:07102D001812E090E6C2F08A
:011034002299
:1004FC00E4F54EF54FFBFAF550F551F552F553F581
:10050C0054C205E5AA30E2030206A390E694E090FB
:10051C00E695E02400C313755000F5517D007CF482
:10052C00E53090E6C230E006E0452CF08009E0FFB3
:10053C00E52CF4FEEF5EF0E5326013E531F4528009
:10054C00E4FAFB0BBB00010AEB640A4A70F58D82DE
:10055C008C83E0F5908D828C83A3E0540142B075BE
:10056C00B3FF43B501C2E8E53020E003020600E426
:10057C00F54EF54FC3E54F9551E54E9550400302AE
:10058C00068290E6C2E0FFE52CF4FEEF5EF08D8271
:10059C008C83E0F59004F5B074022DFDE43CFCE591
:1005AC002B452A6015E55124FFFFE55034FFFEEF83
:1005BC00B54F07EEB54E03D38001C3920590E6C24A
:1005CC00E0452CF0300508E4F5B353B5FEF552E5E3
:1005DC0052C394074012E4F552FAFB0BBB00010A1C
:1005EC00EB640A4A70F580020552054FE54F7084A2
:1005FC00054E8080E4F54EF54FC3E54F9551E54E21
:10060C00955050728D828C83E0F59004F5B090E695
:10061C00C2E0452CF074022DFDE43CFCE52B452A90
:10062C006015E55124FFFFE55034FFFEEFB54F0791
:10063C00EEB54E03D38001C39205300508E4F5B343
:10064C0053B5FEF55290E6C2E0FFE52CF4FEEF5EEA
:10065C00F0E552C394074012E4F552FAFB0BBB00D1
:10066C00010AEB640A4A70F580020552054FE54F0A
:10067C007087054E8083E52B452A60057523018024
:10068C000EE4F5B353B5FEE5326004E5314280D299
:10069C00E890E6957480F0E52B452A70030208007B
:1006AC00E5237003020800E4F5527555FC755600FD
:1006BC00C2E8E53030E07AE4F54EF54FAE2AAF2BC8
:1006CC007C007D02120995C3E54F9FE54E9E4003C9
:1006DC000207DD90E6C2E0FFE52CF4FEEF5EF0854C
:1006EC005682855583E590F0A3E5B0F0E4FAFB0B58
:1006FC00BB00010AEB64024A70F590E6C2E0452C9F
:10070C00F074022556F556E43555F555E552C3946B
:10071C00074012E4F552FAFB0BBB00010AEB640A2A
:10072C004A70F580020552054FE54F708F054E80DB
:10073C008BE4FAFB0BBB00010AEB64054A70F5E491
:10074C00F552AE2AAF2BFC7D021209958E538F54B5
:10075C00E4F54EF54FC3E54F9554E54E9553507166
:10076C00855682855583E590F0A3E5B0F090E6C2FE
:10077C00E0452CF0E4FAFB0BBB00010AEB64044AE5
:10078C0070F574022556F556E43555F55590E6C2CC
:10079C00E0FFE52CF4FEEF5EF0E55424FFFFE5539B
:1007AC0034FFFEC3E54F9FE54E9E501BE552C394AC
:1007BC00074012E4F552FAFB0BBB00010AEB640A8A
:1007CC004A70F580020552054FE54F7088054E8042
:1007DC0084D2E8E52A90E69CF0000000E52B90E638
:1007EC009DF0000000E4F523F52AF52BE5326004BA
:1007FC00E5314280E5256039052FE52F7002052E85
:10080C00FFAE2EE4FCFD7BE87AFDF9F8C31209CBB0
:10081C00701FE52D6004C2808002D280E52D600837
:10082C00E4F52DF52EF52F22752D01752EC3752FA0
:01083C00506B
:01083D002298
:0217BA00D32238
:0217BC00D32236
:0217BE00D32234
:08179E0090E6BAE0F533D32216
:1017650090E740E533F0E490E68AF090E68B04F0EC
:02177500D3227D
:0817A60090E6BAE0F521D32220
:1017770090E740E521F0E490E68AF090E68B04F0EC
:02178700D3226B
:0217C000D32232
:0217C200D32230
:0217C400D3222E
:0217C600D3222C
:1016F700C0E0C083C082D2015391EF90E65D7401D0
:08170700F0D082D083D0E03263
:10172700C0E0C083C0825391EF90E65D7404F0D0AF
:0617370082D083D0E032F5
:10173D00C0E0C083C0825391EF90E65D7402F0D09B
:06174D0082D083D0E032DF
:1011C900C0E0C083C08290E680E030E70E85080C5D
:1011D90085090D85100E85110F800C85100C851160
:1011E9000D85080E85090F5391EF90E65D7410F097
:0711F900D082D083D0E03268
:10170F00C0E0C083C082D2035391EF90E65D7408AE
:08171F00F0D082D083D0E0324B
:10143200C0E0C083C08290E680E030E70E85080CF1
:1014420085090D85100E85110F800C85100C8511F4
:101452000D85080E85090F5391EF90E65D7420F01B
:07146200D082D083D0E032FC
:0117C80032EE
:0117C90032ED
:0117CA0032EC
:0117CB0032EB
:0117CC0032EA
:10008000C0E0C0F0C083C082C0D075D000C000C046
:0D00900001C002C003C004C005C006C007C7
:10009D0090E780E0FF120A190115000120010129E6
:1000AD0002013403013D04014605015406015A07BE
:1000BD00016E0801870901910A01BF0B01B30C0103
:1000CD00E90D025E0E029F0F02C91002BC11019DC7
:1000DD001201A91301D71401C91502D81602E5178B
:1000ED0002EC1803811903A32003C62103F1220496
:1000FD0001230436240464250476300483310493EB
:10010D003204A9E0000004C790E7C07401F0A30415
:10011D000202D490E781E0FDE4FF806F7B017AE776
:10012D0079C0E4FF0201D190E781E0F5220204D30A
:10013D0090E781E0F5230204D390E781E090E6C2D9
:10014D00F090E7810201E190E6C20201E190E781C2
:10015D00E0FEA3E07C002400F52BEC3EF52A020422
:10016D00D390E7C07401F090E68FF07FE87E031224
:10017D0013B8D20412156D0204D37B017AE779C04E
:10018D007F01804090E781E0FD7F0112168580445C
:10019D0090E781E0FD7F0212168580387B017AE7BA
:1001AD0079C07F02801E90E781E0FD7F03121685E6
:1001BD0080227B017AE779C07F0380087B017AE793
:1001CD0079C07F041212DC0204CD90E781E0FD7F3F
:1001DD0004121685E090E7C0F00204CD90E782E0AE
:1001ED00FFE4FCFDFE7810120A06C004C005C0062F
:1001FD00C00790E781E0FFE4FCFDFE7818120A06C7
:10020D00D003D002D001D000EF4BFFEE4AFEED49F6
:10021D00FDEC48FCC004C005C006C00790E783E0B4
:10022D00FFE4FCFDFE7808120A06D003D002D001CF
:10023D00D000EF4BFBEE4AFAED49F9EC48F8A3E09C
:10024D00FFEB4FF529EAF528E9F527E8F526020435
:10025D00D3AF29AE28AD27AC2678181209F290E756
:10026D00C0EFF0AF29AE28AD27AC2678101209F2F9
:10027D00A3EFF0AF29AE28AD27AC2678081209F20E
:10028D00A3EFF0E529FFA3EFF090E68F7404F002E1
:10029D0004D390E781E0C39402500BE0F52590E77D
:1002AD00C07401F0800690E7C0E525F00204CD9002
:1002BD00E781E0F53190E7C07401800B90E781E0B4
:1002CD00F53290E7C07401F002045E90E680E054D0
:1002DD0080C41313130203E890E6F4E00203EA90DE
:1002ED00E7C1E524F06450703D7EE7755AE7755B14
:1002FD00C27B027D05AF241215F47EE7755AE775B2
:10030D005BC47B087D08AF241215F490E7CCE4F0B4
:10031D00A3F0A3F0A3F0A3F0A3F0A3F0A3F0A3F038
:10032D00A3F0A3F0803F7EE7751AE7751BC27B0231
:10033D007D051214D5901815E0B4C21AE4FF743679
:10034D002FF8E6FE74C42FF582E434E7F583EEF062
:10035D000FBF08EA800F7EE7751AE7751BC47B1384
:10036D007D081214D590E7C07401F090E68F7417D4
:10037D00F00204D390E781E0FF90E68DE024FDFDCF
:10038D007AE77B831216DB90E7C050057401F0808D
:10039D0002E4F00204CD90E781E0FFA3E0FD7AE7EF
:1003AD007BC11216BF90E7C050057401F08002E4C6
:1003BD00F090E782E00402045E90E781E0C39402CE
:1003CD005015E090E67AB40107E04401F00204D341
:1003DD00E054FEF00204D390E67AE0540190E7C0B9
:1003ED00F00204CD90E781E0FF12149F90E7C0EF7B
:1003FD00F00204CD90E782E0FEA3E07C002400FD36
:10040D00EC3EFCA3E0FB7EE7751AE7751BC190E798
:10041D0081E0FF1214D990E7C050057401F08002FD
:10042D00E4F090E784E004802890E781E0FFA3E00A
:10043D00FDA3E0FB90E7C1755AE7755BC11215F49A
:10044D0090E7C050057401F08002E4F090E783E07E
:10045D000490E68FF0806F90E781E07004A3E0F5E3
:10046D003090E7C0E530F0805790E781E0FFA3E0E2
:10047D00FD1216A2805090E781E0FF7B017AE779AB
:10048D00C0121644803A90E781E07006A3E0FF1297
:10049D00166812175390E7C0EFF0802490E7C074F0
:1004AD00E0F090E601E090E7C1F090E600E090E723
:1004BD00C2F090E68F7403F0800C90E7C074FFF0EB
:1004CD0090E68F7401F090E68DE4F05391EF90E695
:0404DD005F7408F050
:1004E100D007D006D005D004D003D002D001D0006F
:0B04F100D0D0D082D083D0F0D0E03219
:0117CD0032E9
:0117CE0032E8
:0117CF0032E7
:0117D00032E6
:0117D10032E5
:0117D20032E4
:0117D30032E3
:0117D40032E2
:0117D50032E1
:0117D60032E0
:0117D70032DF
:0117D80032DE
:0117D90032DD
:0117DA0032DC
:0117DB0032DB
:0117DC0032DA
:0117DD0032D9
:0117DE0032D8
:0117DF0032D7
:0117E00032D6
:0117E10032D5
:0117E20032D4
:0117E30032D3
:0117E40032D2
:0117E50032D1
:0117E60032D0
:0117E70032CF
:0117E80032CE
:0117E90032CD
:0117EA0032CC
:101200001201000200000040560425EE0000010219
:1012100000010A06000200000040010009023C0033
:10122000010100A0320904000006FF0000000705CC
:10123000010240000A0705810240000A0705020278
:1012400000020007050402000200070586020002F2
:10125000000705880200020009023C00010100A00D
:10126000320904000006FF000000070501024000EB
:101270000A0705810240000A070502024000000734
:1012800005040240000007058602400000070588AB
:10129000024000000403090408034100440049001F
:1012A0002C03410044004900200045007600610005
:1012B0006C0075006100740069006F006E00200012
:1012C000530079007300740065006D000E034C003C
:0C12D0005200460044006500760000005B
:10159C0090E682E030E004E020E60B90E682E0305A
:1015AC00E119E030E71590E680E04401F07F147E0D
:0C15BC00001213B890E680E054FEF0220C
:10161F0090E682E044C0F090E681F043870100003D
:04162F000000002295
:10156D0030040990E680E0440AF0800790E680E0C0
:10157D004408F07FDC7E051213B890E65D74FFF031
:0F158D0090E65FF05391EF90E680E054F7F02284
:1013B8008E1D8F1E90E600E05418700DE51DC313B6
:1013C800F51DE51E13F51E801590E600E05418FF84
:1013D800BF100BE51E25E0F51EE51D33F51DE51EC6
:1013E800151EAE1D7002151D4E600512163380EED7
:0113F80022D2
:0817AE00E4F562D2E9D2AF229A
:1014690090E678E020E6F9C2E990E678E04480F079
:10147900EF25E090E679F090E678E030E0F990E643
:1014890078E04440F090E678E020E6F990E678E0EC
:0614990030E1D6D2E92289
:10153B00A90790E678E020E6F9E562702390E6785B
:10154B00E04480F0E925E090E679F08D5DAF03A9EA
:10155B0007755E018A5F8960E4F561756201D322CC
:02156B00C32299
:10150700A90790E678E020E6F9E562702590E6788D
:10151700E04480F0E925E0440190E679F08D5DAF85
:1015270003A907755E018A5F8960E4F56175620347
:04153700D322C322D6
:03004B000210356B
:10103500C0E0C083C082C085C084C086758600C0FC
:10104500D075D000C000C001C002C003C006C007F3
:1010550090E678E030E20675620602111F90E678A8
:10106500E020E10CE5626402600675620702111F6B
:10107500E56224FE605F14603624FE7003021110E1
:1010850024FC700302111C2408600302111FAB5ECF
:10109500AA5FA960AF6105618F827583001209346B
:1010A50090E679F0E561655D7070756205806B901D
:1010B500E679E0AB5EAA5FA960AE618E82758300BA
:1010C500120973756202E55D6401704E90E678E081
:1010D5004420F08045E55D24FEB5610790E678E0A3
:1010E5004420F0E55D14B5610A90E678E04440F0EF
:1010F50075620090E679E0AB5EAA5FA960AE618E8D
:10110500827583001209730561800F90E678E044CB
:1011150040F075620080037562005391DFD007D0FF
:1011250006D003D002D001D000D0D0D086D084D054
:0811350085D082D083D0E032A6
:0215C800A90771
:1015CA00AE14AF158F828E83A3E064037017AD014A
:1015DA0019ED7001228F828E83E07C002FFDEC3E94
:0915EA00FEAF0580DF7E007F00EA
:0115F30022D5
:1016BF00121507E56224FA600E146006240770F312
:0C16CF00D322E4F562D322E4F562D322BA
:1016DB0012153BE56224FA600E146006240770F3C2
:0C16EB00D322E4F562D322E4F562D3229E
:101633007400F58690FDA57C05A3E582458370F9CA
:011643002284
:0300000002113DAD
:0C113D00787FE4F6D8FD75816202118411
:10083E00E709F608DFFA8046E709F208DFFA803E9C
:10084E0088828C83E709F0A3DFFA8032E309F60889
:10085E00DFFA8078E309F208DFFA807088828C83F1
:10086E00E309F0A3DFFA806489828A83E0A3F608A5
:10087E00DFFA805889828A83E0A3F208DFFA804C7F
:10088E0080D280FA80C680D4806980F28033801056
:10089E0080A680EA809A80A880DA80E280CA8033BF
:1008AE0089828A83ECFAE493A3C8C582C8CCC58337
:1008BE00CCF0A3C8C582C8CCC583CCDFE9DEE78007
:1008CE000D89828A83E493A3F608DFF9ECFAA9F086
:1008DE00EDFB2289828A83ECFAE0A3C8C582C8CCDC
:1008EE00C583CCF0A3C8C582C8CCC583CCDFEADEF5
:1008FE00E880DB89828A83E493A3F208DFF980CC57
:10090E0088F0EF60010E4E60C388F0ED2402B4044F
:10091E000050B9F582EB2402B4040050AF232345F6
:06092E00822390088E7385
:10093400BB010CE58229F582E5833AF583E0225078
:1009440006E92582F8E622BBFE06E92582F8E222C2
:0D095400E58229F582E5833AF583E49322DC
:10096100BB010689828A83F0225002F722BBFE0175
:02097100F3226F
:10097300F8BB010DE58229F582E5833AF583E8F0BA
:10098300225006E92582C8F622BBFE05E92582C866
:02099300F2224E
:10099500C2D5EC30E709B2D5E4C39DFDE49CFCEE7D
:1009A50030E715B2D5E4C39FFFE49EFE120A3FC3AC
:1009B500E49DFDE49CFC8003120A3F30D507C3E4A7
:0609C5009FFFE49EFE22EC
:1009CB00EB9FF5F0EA9E42F0E99D42F0EC6480C8A3
:0609DB0064809845F02243
:1009E100EB9FF5F0EA9E42F0E99D42F0E89C45F06C
:0109F10022E3
:1009F200E86010ECA2E713FCED13FDEE13FEEF131B
:040A0200FFD8F02207
:100A0600E8600FEFC333FFEE33FEED33FDEC33FC4E
:030A1600D8F122F2
:100A1900D083D082F8E4937012740193700DA3A36C
:100A290093F8740193F5828883E473740293686080
:060A3900EFA3A3A380DF80
:10114900020CB8E493A3F8E493A34003F68001F2F8
:1011590008DFF48029E493A3F85407240CC8C333A7
:10116900C4540F4420C8834004F456800146F6DF76
:10117900E4800B01020408102040809013F9E47EFA
:10118900019360BCA3FF543F30E509541FFEE4936B
:10119900A360010ECF54C025E060A840B8E493A332
:1011A900FAE493A3F8E493A3C8C582C8CAC583CA5D
:1011B900F0A3C8C582C8CAC583CADFE9DEE780BE15
:0114310000BA
:100A3F00BC000BBE0029EF8DF084FFADF022E4CC9B
:100A4F00F875F008EF2FFFEE33FEEC33FCEE9DEC64
:100A5F00984005FCEE9DFE0FD5F0E9E4CEFD22EDAA
:100A6F00F8F5F0EE8420D21CFEADF075F008EF2FF4
:100A7F00FFED33FD4007985006D5F0F222C398FDE5
:050A8F000FD5F0EA2282
:00000001FF
